:1000000055C0000063C0000061C000005FC0000078
:100010005DC000005BC0000059C0000057C0000078
:1000200055C0000053C0000051C000004FC0000088
:100030004DC000004BC0000049C0000047C0000098
:1000400045C0000043C0000041C000003FC00000A8
:10005000B6C100008BC1000039C0000037C00000ED
:1000600035C0000033C0000031C000002FC00000C8
:100070002DC000002BC0000029C0000027C00000D8
:1000800025C0000023C0000021C000001FC00000E8
:100090001DC000001BC0000019C0000017C00000F8
:1000A00015C0000013C0000011C0000011241FBEC5
:1000B000CFEFDAE0DEBFCDBF21E0A0E0B1E001C0CC
:1000C0001D92A431B207E1F772D03BC399CFCF9311
:1000D000DF93F894E1E6F0E080E88083108280B35B
:1000E0008F7080BB8AB1806F8AB98BB18F708BB9EA
:1000F000269A82E084BD94E095BD9DE797BD8093EC
:100100006E0083E380938000C1E8D0E088E18883BB
:1001100081E080936F0084E293E1909305018093E6
:10012000040188E29AE0909309018093080180918C
:100130000401909105012091080130910901821B71
:10014000930B880F991F90930C0180930B01809162
:10015000080190910901909312018093110120915F
:1001600011013091120140E050E060E074E284EF50
:1001700090E00DD230930701209306018091060193
:1001800090910701909389008093880080910601E7
:10019000909107019695879590938B0080938A00A4
:1001A0008881816088837894DF91CF9108958FDF73
:1001B000D0E0C0E0CC24C394812C44E2942E44EFE0
:1001C000A42EB12C04E213E158E2E52E5AE0F52EFC
:1001D000D0901301C095CD21C7FF09C01093050130
:1001E00000930401F0920901E092080109C0D130A6
:1001F00089F030F0D23009F464C0D0E0CD2DE8CFE2
:100200008BB18F708BB95C9AC0926F00C4FBDD27F5
:10021000D0F9F4CF8BB18F708BB95D9A80910401C6
:100220009091050190931201809311012091110189
:100230003091120140E050E0C501B401A8D13093E3
:1002400007012093060110926F00809106019091A2
:100250000701909389008093880080910601909116
:1002600007019695879590938B0080938A00C4FD33
:10027000D2E0C5FF11C08091040190910501883141
:10028000954150F4809104019091050186509F4F53
:100290009093050180930401C6FFB0CF80910401C3
:1002A000909105018133914108F4A8CF8091040118
:1002B000909105018A5F9109909305018093040153
:1002C0009DCF8BB18F708BB95E9A80910801909110
:1002D0000901909312018093110120911101309135
:1002E000120140E050E0C501B40151D13093070143
:1002F0002093060180910601909107019093890057
:1003000080938800809106019091070196958795CA
:1003100090938B0080938A00C4FDD0E0C5FF11C08C
:1003200080910801909109018C319C4050F480919A
:1003300008019091090186509F4F90930901809385
:100340000801C6FF5BCF80910801909109018533B8
:10035000984008F453CF80910801909109018A5F79
:100360009109909309018093080148CF1F920F9241
:100370000FB60F9211242F938F939F938FB190916B
:1003800013018095892790910D01209113019823E5
:1003900092279093130190911001982390930D014F
:1003A00090910A0198239093100180930A019F91E4
:1003B0008F912F910F900FBE0F901F9018951F9245
:1003C0000F920FB60F921124AF92BF92CF92DF928D
:1003D000EF92FF920F931F932F933F934F935F934F
:1003E0006F937F938F939F93AF93BF93EF93FF93FD
:1003F0008091060190910701909389008093880075
:1004000080910601909107019695879590938B00B6
:1004100080938A00209106013091070180910001AC
:1004200090910101A0910201B0910301820F931FED
:10043000A11DB11D8093000190930101A0930201C1
:10044000B09303018091000190910101A0910201FC
:10045000B091030181309442A44FB10540F0109255
:10046000000110920101109202011092030180918B
:100470000401909105012091080130910901821B2E
:10048000930B880F991F90930C0180930B0160913F
:100490000B0170910C0120910001309101014091FC
:1004A00002015091030180E090E08DD0A12CE4E2A4
:1004B000BE2EF4EFCF2ED12CE12CF12C00E010E079
:1004C000ABD030930F0120930E01809100019091E9
:1004D0000101A0910201B091030181309241AA472C
:1004E000B105F8F0409108015091090120910401F3
:1004F0003091050180910E0190910F01840F951F9D
:10050000821B930B90930F0180930E018091040145
:100510009091050120910E0130910F01821B930BE8
:100520000AC020910E0130910F0180910801909135
:100530000901820F931F9093120180931101209162
:1005400011013091120140E050E060E074E284EF6C
:1005500090E01DD03093070120930601FF91EF91A9
:10056000BF91AF919F918F917F916F915F914F91CB
:100570003F912F911F910F91FF90EF90DF90CF90BF
:10058000BF90AF900F900FBE0F901F901895052E43
:1005900097FB16F400940FD057FD05D099D007FCB7
:1005A00002D046F408C050954095309521953F4FB4
:1005B0004F4F5F4F089590958095709561957F4F4F
:1005C0008F4F9F4F0895E894DF93CF93FC01DB0199
:1005D000A1D07F936F93E9019A01AC01BF93AF93D0
:1005E0003F932F93DF0196D026F46C1B7D0B820B7B
:1005F000930B9E01EB01FC019CD0AF91BF912F9119
:100600003F9197D0BE01CF01F9012F913F91CF913A
:10061000DF910895689401C0E8948F929F92CF93E0
:10062000DF9305D0DF91CF919F908F90089588241C
:100630009924F401E401B0E49F93AA279A158B044E
:100640009C04ED05FE05CF05D007A10798F4AD2F5A
:10065000DC2FCF2FFE2FE92D982C892E982F872F56
:10066000762F652F542F432F322F2227B85031F782
:10067000BF9127C01B2EBF91BB27220F331F441FE2
:10068000551F661F771F881F991F881C991CEE1F16
:10069000FF1FCC1FDD1FAA1FBB1F8A149B04EC0584
:1006A000FD05CE05DF05A007B10748F08A189B08B5
:1006B000EC09FD09CE09DF09A00BB10B21601A94EA
:1006C000E1F62EF49401AF01BE01CD01000C0895B6
:1006D000A1E21A2EAA1BBB1BFD010DC0AA1FBB1F46
:1006E000EE1FFF1FA217B307E407F50720F0A21BB8
:1006F000B30BE40BF50B661F771F881F991F1A9425
:1007000069F760957095809590959B01AC01BD014E
:10071000CF010895A29FB001B39FC001A39F700DA8
:10072000811D1124911DB29F700D811D1124911DF9
:100730000895F0DF460F571FC81FD91F08F43196E0
:060740000895F894FFCFBC
:00000001FF
